:1000000060C500007BC5000079C500000C9458262F
:1000100075C5000073C5000071C500006FC5000004
:100020006DC500006BC500000C9433230C941B2499
:100030000C94B21563C5000061C500005FC50000E7
:100040005DC500005BC5000059C5000057C5000034
:1000500055C500000C940F2351C500004FC500008A
:100060004DC500004BC5000049C5000047C5000054
:1000700045C5000043C5000041C500003FC5000064
:100080003DC500003BC5000039C5000037C5000074
:1000900035C5000033C5000031C500002FC5000084
:1000A0002DC500002BC5000029C5000005010980F1
:1000B000A101850319012AB700150126B700950192
:1000C00075108100C0050C0901A101850419012AE0
:1000D000A002150126A002950175108100C005013E
:1000E0000906A1018506050719E029E71500250184
:1000F0009508750181020507190029EF15002501F2
:1001000095F075018102050819012905950575010C
:100110009102950175039101C005010906A1010530
:100120000719E029E7150025019508750181029559
:1001300001750881010507190029FF150026FF0038
:100140009506750881000508190129051500250186
:10015000950575019102950175039101C009023B56
:1001600000020100A0FA09040000010301010009D6
:100170002111010001224400070581030800010943
:100180000401000103000000092111010001226D9A
:100190000007058203200001120100020000000890
:1001A000534601000100010200010C0343006F00EF
:1001B00072006E0065000000100366006F006F00A3
:1001C0007300740061006E0000000403090400AEB7
:1001D00000AF0000000000003E5B4F5B3E003E6B46
:1001E0004F6B3E001C3E7C3E1C00183C7E3C1800C1
:1001F0001C577D571C001C5E7F5E1C0000183C18BD
:100200000000FFE7C3E7FF00001824180000FFE725
:10021000DBE7FF0030483A060E0026297929260040
:10022000407F05050700407F05253F005A3CE73C1D
:100230005A007F3E1C1C0800081C1C3E7F00142234
:100240007F2214005F5F005F5F0006097F017F006F
:10025000006689956A0060606060600094A2FFA2F9
:10026000940008047E04080010207E201000080876
:100270002A1C0800081C2A0808001E101010100074
:100280000C1E0C1E0C0030383E383000060E3E0EA0
:10029000060000000000000000005F0000000007F2
:1002A00000070000147F147F1400242A7F2A120004
:1002B00023130864620036495620500000080703E3
:1002C0000000001C224100000041221C00002A1CEA
:1002D0007F1C2A0008083E080800008070300000DB
:1002E00008080808080000006060000020100804EA
:1002F00002003E5149453E0000427F4000007249E5
:10030000494946002141494D33001814127F10001D
:100310002745454539003C4A4949310041211109E9
:100320000700364949493600464949291E00000060
:1003300014000000004034000000000814224100B6
:100340001414141414000041221408000201590965
:1003500006003E415D594E007C1211127C007F491F
:10036000494936003E41414122007F4141413E0022
:100370007F49494941007F09090901003E41415136
:1003800073007F0808087F0000417F410000204083
:10039000413F01007F08142241007F40404040005F
:1003A0007F021C027F007F0408107F003E41414114
:1003B0003E007F09090906003E4151215E007F0988
:1003C0001929460026494949320003017F010300EB
:1003D0003F4040403F001F2040201F003F4038402A
:1003E0003F00631408146300030478040300615998
:1003F000494D4300007F41414100020408102000A4
:10040000004141417F00040201020400404040409D
:1004100040000003070800002054547840007F2863
:1004200044443800384444442800384444287F0079
:1004300038545454180000087E0902001824241C63
:1004400078007F080404780000447D4000002040CC
:10045000403D00007F102844000000417F40000024
:100460007C04780478007C08040478003844444410
:1004700038007C1824241800182424187C007C08D8
:100480000404080048545454240004043F44240045
:100490003C4040207C001C2040201C003C40304060
:1004A0003C004428102844004C9090907C00446408
:1004B000544C440000083641000000007700000062
:1004C0000041360800000201020402003C262326F7
:1004D0003C000000000000000000000000000000E0
:1004E0000000C0E0F0F8F81800C0F0FCFEFFFFFFCD
:1004F000FFFFFFFF7E00000000000000000080C042
:10050000E0E0E0E0E0E0E0E0C0800000000080C06B
:10051000E0E0E0E0E0E0E0E0C080000000E0E0C01B
:10052000C0E0E0E0E00000E0E0C0C0E0E0E0E0E0EB
:10053000C0800000000080C0E0E0E0E0E0E0E0E03B
:10054000C08000000000000000000000000000006B
:10055000E0F0F0F0E0ECEEF7F37020007C7C7C7EC5
:10056000007E7E7E7F7F7F000080C0E07E5B4F5BF1
:10057000FEC00000C000DCD7DEDEDED7DC00C0003D
:10058000000000000000000000000000000000006B
:100590000000000000000000000000F8FCFEFFE08A
:1005A00000FFFFFFFFFFFF80FFFFFFFFFFFFFFFFD9
:1005B000FF1F0701000000000000000000FFFFFF18
:1005C0008100000000000081C3C3C30000FFFFFFE3
:1005D0008100000000000081FFFFFF0000FFFFFF1F
:1005E00001000000000000FFFFFF0100000000010B
:1005F000FFFFFF0000FFFFFF9D1C1C1C1C1C1C9D1F
:10060000DFDFDF000000000000000000000000004D
:100610000F1F3F7F7F7F7F7F3F1E0C001F1F1F3FED
:10062000003F3F3F7F7F7F00307B7F78302020304E
:10063000787F3B0003000F7F0F0F0F7F0F00030039
:1006400000000000000000000000000000000000AA
:100650000000000000000000000000030F1F3F3FEB
:100660003F3F1F1F3F3F7F7F7F3F3F1F3F7F7F7F7A
:100670007F7C7878381C0F00000000000000010328
:10068000070707070707070703010000000001032A
:100690000707070707070707030100000007070709
:1006A0000000000000000007070700000000000035
:1006B00007070700000001030707070707070707E9
:1006C0000301000000000000000000000000000026
:1006D000000000000000000000000000000000001A
:1006E000000000000000000000000000000000000A
:1006F00000000000000000000000000000000000FA
:1007000000000000000000000000000000000000E9
:1007100000000001010101010101010102020202C8
:10072000020202020203030303030303030404049B
:100730000404040405050505050606060606070764
:1007400007070708080808090909090A0A0A0B0B1C
:100750000B0C0C0C0D0D0D0E0E0E0F0F0F101011BB
:100760001111121213131414151516161717181841
:1007700019191A1A1B1B1C1D1D1E1E1F20202122A9
:1007800022232424252626272829292A2B2C2D2DEF
:100790002E2F30313232333435363738393A3B3C0C
:1007A0003D3E3F404142434445464748494A4C4DFF
:1007B0004E4F50515354555658595A5B5D5E5F61C8
:1007C0006264656668696B6C6D6F7072737577785B
:1007D0007A7B7D7E8082838587888A8C8E8F9193B9
:1007E0009596989A9C9EA0A2A3A5A7A9ABADAFB1E0
:1007F000B3B5B7BABCBEC0C2C4C6C9CBCDCFD1D4C5
:10080000D6D8DBDDDFE2E4E7E9EBEEF0F3F5F8FA6A
:10081000FDFF00DA0281FFD9F1DB20A4A62EAF0094
:10082000A0C0D30000A1C8D30000AED580A81F404F
:100830008D142000808182838485868788898A8BB5
:100840008C8D8E8F9091929394A0A1A2A3A4A5A623
:10085000A7A8A9AAABACADAEAFB0B1B2B3B4C0C19A
:10086000C2C3C4C5C6C7C8C9CACBCCCDCECFD0D1F0
:10087000D2D3D4003A002C206B007800556E64650A
:10088000660041646A757374005261697365004C57
:100890006F7765720044656661756C74004C6179B0
:1008A00065723A20002B0014001A0008001500178A
:1008B00000E00004241628072209210A00E1001D97
:1008C000001B24060019000500000000000000E3E2
:1008D0000000522C002A00130012000C0018001C0B
:1008E00000340033340F380E320D310B002D003838
:1008F0000037003600100011000000000000002941
:1009000032045228002B0000000000025200004B6D
:100910000046005000510052004F004E00E100E23E
:1009200000E300E100E000E600000000000000E35A
:100930000000522C004C003E003D003C003B003AC1
:1009400000390043004200410040003F000052E6F1
:10095000004D004A0045004400000000000000294E
:1009600032025228002B0014001A0008001500174C
:1009700000E00004001600070009000A00E1001D65
:10098000001B24060019000500000000000000E321
:1009900000E2002C0013002200210020001F001E96
:1009A0000012000C000F000E000D000B000052237F
:1009B00052E600460010001100000000000000296F
:1009C000322A00280002780578067800780478003A
:1009D00000000000000000017803780000AC00ABCC
:1009E00000AE00A800AA00A900000000000000005E
:1009F00000000000002978257823782178227820CB
:100A0000782A782678247828782778000000520100
:100A100000000000000000007C0000000000002931
:100A200032000000002B00350038002F0026025055
:100A300000E00031243428302227024F00E1001169
:100A40000013002D002E00360000000000000033CF
:100A50000000522C004C002A0026002500240052E1
:100A600000390027002300222221005100005200FB
:100A70000020001F001E00370000000000000029B9
:100A800000015228002020202061626364656667AF
:100A900068696A6B6C6D6E6F70717273747576775E
:100AA00078797A31323334353637383930524542F5
:100AB000545F2D3D5B5D5C233B27602C2E2F202057
:100AC000200011241FBECFEFDAE0DEBFCDBF12E061
:100AD000A0E0B1E0E4E3F1E502C005900D92A83A90
:100AE000B107D9F726E0A8EAB2E001C01D92A13E05
:100AF000B207E1F70E94C51E0C944B2881CA292F2A
:100B000030E048E0911102C09C0140E0C90164E07E
:100B1000969587956A95E1F7009711F04C5F9C01D7
:100B2000C9019695879596958795009711F04E5F28
:100B30009C01C90196958795840F08958093980626
:100B4000909399060895983090F5863080F5E82FB7
:100B5000F0E086E0989FE00DF11D112451E0E1FDE9
:100B600054E0E0FD550FE2FD529583E0F695E795E0
:100B70008A95E1F7EE0FFF1FEE0FFF1FE159F94FC6
:100B800020E030E070E04191DF01CB01022E02C095
:100B9000969587950A94E2F78695880B8427852396
:100BA00084278E932F5F3F4F2430310561F70895DE
:100BB000292F983070F5863060F590E036E0239F5D
:100BC000800D911D1124682F677023E096958795FD
:100BD0002A95E1F7FC01EE0FFF1FEE0FFF1FE15911
:100BE000F94F40E050E080E0219130E0062E02C055
:100BF000369527950A94E2F72170042E01C0220F42
:100C00000A94EAF7822B4F5F5F4F4430510561F73A
:100C1000089580E00895E091A1069091A006E9135F
:100C200002C080E008959F0157E0E59FF001112484
:100C3000EE55F94F5181561306C05081581303C029
:100C40005581541305C02F5F3F4FF901E770E7CF7F
:100C500081E008958091A1062091A006281301C08B
:100C6000089501968770FACF8091950690919F061E
:100C7000892B909196069115C9F0892B90914B0183
:100C8000913021F490919D0697FD11C096E02CEAD9
:100C900032E040E09150F90150812F5F3F4F5111F8
:100CA0004F5F9111F7CF41111092960608959EE182
:100CB00024EB32E0EECF8095982F80919506892322
:100CC000809395060895972F7830C8F46630B8F46D
:100CD0008530C0F470E026E0929F600D711D1124F4
:100CE00090E3899F600D711D1124FB01EE0FFF1F22
:100CF000EB55F74F85919591282F822F089520E08D
:100D000090E0FBCF21E0FCCF803E9105D1F1C8F40B
:100D10008133910509F481C048F48932910509F4C1
:100D200071C08A32910509F47FC008958933910515
:100D3000E1F082389105C9F08533910509F45DC071
:100D40000895843E9105D1F148F4823E910531F138
:100D5000833E910541F181EE90E00895863E910534
:100D6000C1F1873E9105F1F1089520919D06237010
:100D700009F064C020919E0623FF14C089E290E030
:100D8000089520919D0620FD45C030919E0630FFBC
:100D900009C024FD24C083EE90E0089520919D06B3
:100DA00022FDF7CF089520919D0622FD44C0309189
:100DB0009E0630FD43C024FFF5CF11C020919E0652
:100DC00021FFF0CF80919D0684FD09C087EE90E061
:100DD000089520919D0623FFE5CF24FFF7CF80E003
:100DE00090E0089520919D0623FD2BC030919E0632
:100DF00031FFE1CF84EE90E0089520919D0625FF1C
:100E0000D1CFBCCF20919D0625FD1EC020919E060E
:100E100023FFC8CF89E390E0089520919D0626FF27
:100E2000C1CF8AE290E0089520919D0626FFBACFB7
:100E300081E390E0089582EE90E0089580EE90E0E6
:100E4000089586EE90E0089585E390E008959091EE
:100E50009D0692FF10C041E0282F2471243009F034
:100E600040E031E0282F2871283009F030E04317A6
:100E700011F02CE0822793FF10C041E0282F24714D
:100E8000243109F040E031E0282F2871283109F0A1
:100E900030E0431711F02CE0822730919E0630FF9E
:100EA00010C051E0282F2171213009F050E041E0BD
:100EB000282F2871283009F040E0541711F029E05C
:100EC000822731FF10C041E0282F2171213109F024
:100ED00040E031E0282F2871283109F030E0431735
:100EE00011F029E0822794FF02C083FD877E0895D8
:100EF0000F931F93CF93DF9307DFEC01D23508F0F8
:100F00004DC0D03508F0C3C0C03ED10530F5CD3C52
:100F1000D10508F09AC0C83AD10578F4C53AD10590
:100F200008F090C0C130D10599F1CE010497813A03
:100F3000910570F1C0E0D0E02BC0CE01885A910934
:100F40004B97C0F7C85AD0E0CC0FDD1FC45CDD4F13
:100F50000990D881C02DD4641BC0D03490F4D03215
:100F600008F0A8C0C83ED10598F0CE0191509F313D
:100F700008F78D2F6CDF082F8C2F90E0C5DE902BAB
:100F800054C08C2F90E0C0DEDF70C82FD92BD06A00
:100F9000CE01DF91CF911F910F910895C03882E566
:100FA000D807B8F5C03682E5D80708F056C0C03477
:100FB00082E5D807C8F4C03282E5D80708F047C0F8
:100FC0008C2F8695869520E2829FC0011124C370E4
:100FD00021E030E002C0220F331FCA95E2F7E90199
:100FE000C82BD92BDD68D4CF8C2F8695869587703A
:100FF00020E2829FC0011124C37021E030E002C0D2
:10100000220F331FCA95E2F7E901C82BD92BDC6800
:10101000BFCFC03C82E5D80750F48C2F8F71C03A07
:10102000D24580F5982F84EF906AEC01B1CFCE01C4
:10103000805C9245809708F07DCFDC2FDF71C0EF98
:10104000D06AA6CFA497D064A3CFD065A1CF8C2FB0
:101050008F71D82FC1EFD06A9BCF8C2F8695869544
:10106000877020E2829FC0011124C37021E030E02C
:1010700002C0220F331FCA95E2F7E901C82BD92B12
:10108000DA6886CFE4DEC0E0D82FD06281CF8C2F23
:101090008F71DDDE93E0CC0FDD1F9A95E1F7DF70F5
:1010A000282F84FF04C090E1899F90011124C22F52
:1010B000D0696ECF8D2F8F71CADE082F8C2F90E0F4
:1010C00023DE902BEC01E1CFCF92DF92FF920F93C2
:1010D0001F93CF93DF936C0100919A0610919B06AA
:1010E0008091980690919906082B192BCFE0D0E0BB
:1010F00081E090E00C2E02C0880F991F0A94E2F75D
:1011000080239123892B61F4219790F7F12C8F2D67
:10111000DF91CF911F910F91FF90DF90CF900895B5
:10112000FC2EB6018C2FCFDDE3DE019769F3EFCF04
:101130001F93CF93DF93FC012581C081D181CE0124
:10114000211571F0611561F0BFDF182F682FCE01F6
:10115000FADCBE01812FB7DDDF91CF911F91089599
:1011600027DD182FF6CFCF93DF93EC01ADDFBE0163
:10117000AADDBEDEDF91CF910895FC012481211507
:1011800099F080819181EFDF282F92959F709630A2
:1011900099F060F4925F9F70923030F4203FB1F08C
:1011A00038F481E0283E38F080E008959A5FF3CF6C
:1011B00081E0243FC9F7089591E0213F09F090E0D4
:1011C00081E0283E08F080E0892B089581E00895B1
:1011D00080E00895F894E82FE295EF70F0E041A1E7
:1011E0008F7021E001C0220F8A95EAF7922F909527
:1011F000942391A392A1822F892B82A3789408959E
:101200008091A00381608093A0030895FF920F93C3
:101210001F93CF93DF93182F062FF42E80E090E0DA
:1012200020913E06EC012196211571F08B3120F4BE
:101230002F2D402F612F75D2CE01E69789F7CDB7BC
:10124000DEB7E5E00C94A0278B3110F4CE01E8CF97
:101250004B97EECF9BE0899F802D1124982F955FAF
:10126000973308F096E320913E06211104C08B319C
:1012700028F48BE108959C3108F09BE10895A0E0EB
:10128000B0E0E5E4F9E00C947F27182F8091040189
:1012900081132AC090918D0693702091030130E054
:1012A00081E09217130609F480E080930201809197
:1012B000920690910101981731F08093010140E06E
:1012C00060E080E0A3DF113089F01F3F09F4CBC05C
:1012D000111108C080910201811521F040E060E009
:1012E00080E094DF80E024C081E0DFCF80910001C6
:1012F000B1DFA82E092F40918E06B0908F06E091A5
:101300009006F0E0EE5EF84FB11024C0E491CE2FCD
:10131000DE2FDE2EEA2CF12C90913E060E1511F0F8
:1013200008F081C081E0911509F49BC00B31D0F623
:10133000909100019F5F909300018111BDC082E0F8
:1013400080934E01809102018111B6C01111B4C089
:1013500083E0B0C0E491CE2F86E0489F7001112455
:101360002FEF30E0C701B9010E946327440F551FDA
:10137000F5E5F69FC001F79F900D1124481B842FBF
:10138000880F480FD901AB19B109EA9FC001EB9F43
:10139000900D1124D92FB49E60011124CD2CD12C95
:1013A000D901AC19BD096D01EC9DD001ED9DB00DC9
:1013B00011246330710569F16901C41AD108A601CD
:1013C000B49E6001B59ED00C1124CD2CD12C2C19CB
:1013D0003D09E29FA001E39F500D1124D52E2CEF73
:1013E000E21623E0F20658F461307105B1F0623084
:1013F000710509F08FCFC92FD52FDE2E8BCF64302A
:10140000710571F06630710509F484CFD92EDB2F98
:1014100081CFDB2EC92FDE2F7DCFDE2ECB2F7ACFD3
:10142000C52FD92EF8CFF701EE50FE4F80812091C5
:101430000101822339F0F701911541F08BE1E816A3
:10144000F1044CF08FEFE81AF80A66CF8BE1E8164A
:10145000F104C4F37B972D2F4D2D6C2FCF0161D15B
:10146000F1CF063364CF90919D03A0919E03B0917C
:101470009F03892F9A2FAB2FA69597958795A695B1
:1014800097958795837090E0A0E0B0E08230910559
:10149000A105B105B1F083309105A105B105A1F019
:1014A00040E060E010979040814081F464E180E08A
:1014B000ADDE82E080934E01CDB7DEB7EAE00C945A
:1014C0009B2744E160E0F3CF44E164E184E1F0CFA5
:1014D000CF93C82F811581F08091F40581110CC044
:1014E000CEDE1092040180918D06837080930301FB
:1014F000B2D383E080934E01C093F405CF91089559
:1015000080918D0691E0892780938D0610924E017F
:1015100077CE80918D06837031F0846080938D0644
:1015200010924E016DCE089580918D06837031F03A
:10153000846080938D0610924E0162CE0895909142
:101540008D06937051F080938E0660938F06493715
:1015500008F048E74093900653CE0895CF93DF9369
:10156000EC01CDDA833089F048F48130E1F082304B
:10157000A9F040E46FEF85E590E00BC08430C9F737
:1015800040E46FEF80E890E004C040E46FEF80E05B
:1015900090E0D5DFCE01DF91CF91089540E46FEF69
:1015A0008FEB90E0F6CF40E46FEF85E190E0F1CF74
:1015B000D5DF80939A0690939B06089521E030E052
:1015C00002C0220F331F8A95E2F780919A0690910C
:1015D0009B06822B932BECCF21E030E002C0220F40
:1015E000331F8A95E2F72095309580919A06909165
:1015F0009B0682239323DCCF90919C0680958923C0
:1016000080939C06282F277061F4891751F09091E0
:101610009E0692FF06C0869586958695DDDF109220
:101620009C060895EDE8F6E0818190E043816281B7
:10163000089685CFEDE8F6E081814381628188508C
:10164000990B7DCFEDE8F6E0628120E1620F08F4AE
:101650006FEF8181438190E072CFEDE8F6E0628127
:1016600020E1621B08F460E08181438190E067CF54
:10167000EDE8F6E0438120E1420F08F44FEF81816D
:10168000628190E05CCFEDE8F6E0438120E1421B0F
:1016900008F440E08181628190E051CF2091910671
:1016A00030E1230F08F42FEF20939106A9CD20916C
:1016B000910630E1231B08F420E020939106A0CD91
:1016C000E0919206EF3F61F0E53061F0E23061F4C5
:1016D000EF5FF0E0EE5AFE4F80818093920690CD4E
:1016E000E0E0F6CFE1E0F4CFE0E0F3CFE091920666
:1016F000EF3F89F0E53069F0E23019F0E1110DC0FB
:10170000E3E0E150F0E0EE5AFE4F808180939206D4
:1017100077CDE1E0F6CFE3E0F5CFE0E0F3CF539A09
:101720000895FC01EE0FFF1FE80FF91FE151FD4F77
:101730006183408322830895FC01AC014C5F5F4FBD
:101740008FEF61E39191892728E030E0982F990F7E
:1017500087FF09C0892F862721503040B9F7E41749
:10176000F50781F70895892FF7CF80913D06811500
:1017700071F0E0916506F0916606309739F00190BE
:10178000F081E02D309711F00995089580E00895DB
:10179000A3E0B0E0EEECFBE00C9487272091EB0295
:1017A0003091EC0228173907B1F08093EB02909347
:1017B000EC02E0916506F0916606309761F00084D6
:1017C000F185E02D309739F023E029838A839B83CC
:1017D000CE01019609952396E2E00C94A327A3E09D
:1017E000B0E0E5EFFBE00C9487272091E90230910F
:1017F000EA0228173907B1F08093E9029093EA02D0
:10180000E0916506F0916606309761F00084F185FD
:10181000E02D309739F024E029838A839B83CE0121
:10182000019609952396E2E00C94A32790914B0131
:10183000913099F0ACEAB2E0EFEF90E02C91821792
:1018400059F01196EF3F19F4211101C0E92F9F5F64
:101850009630A1F7EF3FC1F4089590919D0697FF50
:10186000E9CFE82FE695E695E695803FA8F7F0E00A
:10187000EE54FD4F877021E001C0220F8A95EAF7F0
:101880008281822B82830895FE2FFF0FFF0BE65586
:10189000FD4FF8CF90914B01913021F490919D062E
:1018A00097FD0CC0ECEAF2E09191891302C0DF01D0
:1018B0001E9292E0E23BF907B9F70895E82FE6950A
:1018C000E695E695803FC8F7F0E0EE54FD4F9DEFBA
:1018D00081FD97EF80FF959582FD92958281892306
:1018E0008283089580914A0108952FB7F8946091FA
:1018F000E5027091E6028091E7029091E8022FBF25
:10190000089580913D06811539F0EFDF462F572F5E
:10191000BC01CB01BA010895E8DFDC01CB014091A5
:101920003F06509140066091410670914206480F73
:10193000591F6A1F7B1FEDCF87E797E78093000849
:101940009093010888E19AE00FB6F894A8958093E7
:1019500060000FBE90936000FFCF0895FC012091BE
:10196000DB023091DC022617370748F0611571055C
:1019700029F49091E8009E779093E8009B0190E015
:101980002115310541F4911106C08091E80082FFD4
:1019900032C080E008958091A3038115C1F18530A4
:1019A000C1F18091E80083FD30C08091E80082FDA4
:1019B000ECCF8091E80080FFE3CF8091F30040916D
:1019C000F200582F2115310519F04830510558F013
:1019D00091E04830510509F090E04091E8004E77E1
:1019E0004093E800CDCF81918093F10021503109DF
:1019F0004F5F5F4FE7CF8091A303811541F08530A2
:101A000041F08091E80083FFC0CF81E0089582E03B
:101A1000089583E00895982F9093E900891771F055
:101A20007091EC002091ED005091F00021FD09C073
:101A30009F5F973089F78093E9000895762F242FD0
:101A400050E03091EB003E7F3093EB003091ED00A1
:101A50003D7F3093ED003091EB0031603093EB002F
:101A60007093EC002093ED005093F0002091EE0075
:101A700027FDDECF08958091D50287FF13C08091A6
:101A8000E80082FF06C08091E8008B778093E80031
:101A900008958091A3038111F2CF08958091A3034B
:101AA0008115D9F38091E80080FFF8CF8091E8009C
:101AB0008E77ECCF2091E4003091E50095E6A90106
:101AC0002091EC00822F817020FF06C08091E800F9
:101AD00080FF06C080E008952091E80022FD1AC032
:101AE0008091A303811589F0853089F08091EB0006
:101AF00085FD0FC02091E4003091E50042175307A7
:101B0000F9F29150E1F684E0089582E0089583E0CF
:101B1000089581E00895CF93DF93C8EDD0E08881E8
:101B20008F7E8883E7EDF0E080818160808384E0B0
:101B300082BF81E08093D40288818E7F8883E2EE29
:101B400010821092DA00A1EEB0E01C9288818F77AB
:101B5000888388818068888388818F7D888319BC89
:101B60001092A3031092D3021092A2031092D202F9
:101B7000A0EE8C918B7F8C9388818160888342E07A
:101B800060E080E048DFA1EEB0E08C918E7F8C9326
:101B9000E2EEF0E0808181608083808188608083D4
:101BA000E0EE80818E7F8083888180618883DF91F1
:101BB000CF910895E8EDF0E080818E7F80831092D0
:101BC000E2001092DA001092E100A0EEB0E08C91F9
:101BD00081608C9380818F77808319BCA7ED8C9175
:101BE0008E7F8C9380818F7E80831092D4020895A3
:101BF000A0E0B0E0EEEFFDE00C947F277C016B01EC
:101C00005A01809124060AE010E08A3010F001E0C9
:101C100010E0C1E0D0E0B601C701F50109958111DE
:101C200015C021960C171D078CF0CC9F9001CD9FFD
:101C3000300D300D112480E090E045E34A95F1F736
:101C40000000019682179307C1F7E5CFCDB7DEB745
:101C5000EAE00C949B273BB1377F2BB128604FB74C
:101C6000F8948FEE92E0FC010196508168E02BB968
:101C7000000000C057FF3BB9550F000000C000C076
:101C800000C03BB900C06A9591F753E081399507D0
:101C900051F74FBF8FE594E00197F1F700C00000C6
:101CA00008950F931F93CF93DF93EB018A019091D7
:101CB000A303943059F58093E9008FEF9091E800E9
:101CC00095FD06C095ED9A95F1F700008150B1F7AA
:101CD0008091E80085FF1AC0EDDE811112C080916D
:101CE000E80085FD06C08091E8008E778093E800CB
:101CF000F3CF88818093F1000150104011F02196BC
:101D0000EECF8091E8008E778093E800DF91CF914D
:101D10001F910F910895CF93DF93EC0148E050E0BD
:101D2000BC0181E0BEDF88E0FE01ADEDB2E00190D4
:101D30000D928A95E1F7DF91CF91089540E250E04E
:101D4000BC0182E0AECF43E050E0BC0182E0A9CF0D
:101D500090919E0692FB222720F9281771F080FBB4
:101D600092F990939E0660919D0670919E0684E084
:101D700090E00E94472882E03FCC089580914B017B
:101D8000813069F580919D0687FF29C00E94340645
:101D90008093B30240E250E065E476E082EB92E0AB
:101DA0000E94EB27892BD1F080E2E2EBF2E0A5E480
:101DB000B6E001900D928A95E1F7E0916506F09109
:101DC0006606309759F00480F581E02D309731F0A8
:101DD00086E08093B20282EB92E0099508950E941A
:101DE00034068093AA0248E050E067E676E08AEA8B
:101DF00092E00E94EB27892B89F388E0EAEAF2E07F
:101E0000A7E6B6E001900D928A95E1F7E0916506AC
:101E1000F0916606309711F30280F381E02D309740
:101E2000E9F28AEA92E0D9CFCF93C82F8115C1F0A9
:101E30008450813A70F580914B01813021F480917A
:101E40009D0687FD0FC0ECEAF2E08081C817E9F03B
:101E5000319682E0E23BF807C1F78C2FE7DC8EDF9A
:101E6000CF910895EC2FE695E695E695F0E0EE54D7
:101E7000FD4F828190E04C2F477021E001C0220F7E
:101E80004A95EAF78223892B41F38C2F03DD76DF15
:101E9000E4CF8C2F805E883060F4C77081E001C091
:101EA000880FCA95EAF7C0919506C82BC09395068E
:101EB000D6CF8C2F855A833028F48C2F8452990BDF
:101EC00067DCCECFC85ACB3158F6EC2FF0E0EE0FDE
:101ED000FF1FEE58FD4F8081918181DCC1CF8115BC
:101EE00011F1982F9450913A10F4D4DC47CF982FE9
:101EF000905E983058F4982F81E091FD84E090FD39
:101F0000880F92FD82950E945B06F0CF982F955A1C
:101F1000933018F480E090E03BCC885A8B3118F471
:101F200080E090E05CCC0895811531F090919506A9
:101F3000982B9093950622CF0895811519F00E9451
:101F40005B061CCF08951092950680914B0181305D
:101F500099F480919D0687FF0FC0E4EBF2E08EE1DB
:101F600011928A95E9F780E090E012DC80E090E041
:101F700036DC10929F0602CFECEAF2E086E0F0CF6A
:101F8000E2DF88E19AE00FB6F894A89580936000AC
:101F90000FBE90936000FFCFAAE2B0E0E2EDFFE059
:101FA0000C94862785ED92E0FC0101962091F100CA
:101FB000208322E08D3D9207B9F78091D6028930C7
:101FC00009F457C0C8F4823009F4B2C0833009F470
:101FD00082C0813081F18091E80083FFE6C080916A
:101FE000D5029091D6029A3008F0DFC0E92FF0E0D8
:101FF000E35BF74D0C94DC278A3009F489C08B3001
:1020000051F78091D502813231F78091D9029091B8
:10201000DA02892B01F78091E800877F8093E8003E
:102020002ADD81E09091D702911101C080E0809378
:102030004B0189DFD0CF8091D502813A61F6809142
:10204000E800877F8093E8008091D9029091DA02BE
:10205000892B59F060E080E090E070E07FDC8091B7
:10206000E8008B778093E800B6CF68E08DED92E0D2
:10207000F4CF8091D502813209F0ADCF8091D902A1
:102080009091DA02029708F0A6CF8091E800877F4E
:102090008093E8008091E80082FF18C02091F3004F
:1020A0008091F200922F029731F48091F1008130FB
:1020B00011F0863021F48091F10080934A018091E3
:1020C000E8008B778093E800D6DC85CF8091A3036E
:1020D0008111E0CF80CF8091D502813A09F07BCF8A
:1020E0008091D9029091DA02892B09F074CF809106
:1020F000E800877F8093E8008091E80080FFFCCFB4
:1021000080914B018093F1008091E8008E77DACFC7
:102110008091D502813209F05ECF8091E800877FFF
:102120008093E800A8DC8091D8028093490153CFC6
:102130008091D502813A09F04ECF8091E800877FE7
:102140008093E8008091E80080FFFCCF80914901F6
:10215000D9CF803889F0823841F58091D9028F70CB
:10216000873018F58093E9008091EB0085FB882784
:1021700080F91092E90006C08091A203880F909127
:10218000D202892B9091E800977F9093E80080938A
:10219000F1001092F1008091E8008E7723C0811148
:1021A00016C08091D702813009F18091E80083FF49
:1021B0000AC08091E800877F8093E8008091EB005F
:1021C00080628093EB00AA96E3E00C94A227823011
:1021D00061F78091D702811579F01092E900809122
:1021E000E800877F8093E80046DCDFCF933009F07A
:1021F00080E08093A203F1CF8091D9028F70282FC5
:102200002150263090F68093E9002091EB0020FFCA
:10221000E4CF933031F48091EB0080628093EB0047
:10222000DCCF9091EB0090619093EB0021E001C036
:10223000220F8A95EAF72093EA001092EA00809133
:10224000EB008860EBCF8111B0CF8091D7028F7700
:10225000182F8091E3008078812B8093E300809198
:10226000E800877F8093E80006DC8091E80080FF2B
:10227000FCCF8091E30080688093E30083E011113C
:1022800001C082E08093A30390CF8058823008F091
:102290008CCF2091D7023091D8022C3D83E03807B3
:1022A00089F583E08A838AE289834FB7F894DE0157
:1022B000139620E03EE051E2E32FF0E05093570008
:1022C000849120FF03C082958F703F5F8F708A30AA
:1022D000B8F0895C8D931D922F5F243169F74FBF51
:1022E0008091E800877F8093E8006AE270E0CE0189
:1022F000019634DB8091E8008B778093E80055CF1E
:10230000805DE8CF832F90E08330910519F160F470
:102310008130910509F46CC08230910509F045CFF8
:102320008BE3EDE5F1E029C02091D9023091DA028A
:102330008132910509F453C08232910509F035CFFD
:102340002130310508F45CC009F02FCF8DE6ECEAAE
:10235000F0E013C0822F90E0213099F18230910596
:10236000B9F1009709F021CFEAECF1E0E4918E2F6A
:10237000EAECF1E0009709F418CF2091E800277FFC
:102380002093E8002091DB023091DC028217930752
:1023900008F49C0140E021153105B1F5411134C02C
:1023A0008091E80082FDA6CF8091A303811509F4F6
:1023B000A1CF853009F49ECF8091E80083FFF0CF54
:1023C00099CFE8EBF1E0E4918E2FE8EBF1E0D2CF8A
:1023D000EAEAF1E0E4918E2FEAEAF1E0CBCF213096
:1023E000310550F009F0E1CE89E0E8E8F1E0C5CF31
:1023F00082E1E8E9F1E0C1CF89E0EFE6F1E0BDCFAD
:1024000084E4E9E1F1E0B9CF8091A303811509F4F7
:1024100071CF853009F46ECF8091E80083FD6ACFDB
:102420008091E80082FDBCCF8091E80080FFB3CFAF
:102430004091F3008091F200942F2115310519F09D
:102440008830910550F041E0089709F040E0809114
:10245000E8008E778093E8009ECF44914093F1008E
:102460003196215031090196E8CF803809F09DCE90
:102470008091E800877F8093E8008091D302809369
:10248000F10089CE811191CE8091D702182F823030
:1024900008F08BCE8091E800877F8093E80010934E
:1024A000D302E9DA111599F084E08093A30342E0A6
:1024B00061EC81E0B0DA42E261EC82E0ACDA80917A
:1024C000A303843051F482E080934C016ECE80915E
:1024D000E30087FDE9CF81E0E8CF81E0F5CFCF923F
:1024E000DF92EF92FF921F93CF93DF9300D000D043
:1024F000CDB7DEB7C090F905D090FA05E090FB05A6
:10250000F090FC05F2D9DC01CB018C199D09AE09D4
:10251000BF0911E084369105A105B10568F1F1D933
:10252000DC01CB010296A11DB11D89839A83AB8387
:10253000BC838091320190913301875F994F209144
:102540003101422F50E0253008F044E09E012F5F1A
:102550003F4FB9010E94F82783E090E00E94F526E2
:10256000182F811549F0C1D96093F9057093FA05C8
:102570008093FB059093FC05812F0F900F900F9097
:102580000F90DF91CF911F91FF90EF90DF90CF9050
:102590000895A0E0B0E0EFECF2E10C947D27B82EB6
:1025A000EB01A42E4901C880D980EA80FB809DD927
:1025B000DC01CB018C199D09AE09BF098436910558
:1025C000A105B10510F4A11419F1EB2CFB2CFF0CA3
:1025D000FF089B2D88E09802F0011124E75EFE4F72
:1025E00081819281875F994F2081422F50E00217AD
:1025F000110508F4A801B4010E94F827C7010E9440
:10260000F526811531F071D9688379838A839B839C
:1026100081E0CDB7DEB7ECE00C949927A1E0B0E003
:10262000E4E1F3E10C9485278091EF058983209103
:102630001F0690E041E02817190609F440E08D01DB
:102640009E012F5F3F4F60EF75E085E0A2DF21968E
:10265000E4E00C94A127A9E0B0E0E1E3F3E10C94FD
:10266000852788E0EDE8F6E08E010F5F1F4FD80167
:1026700001900D928A95E1F78091F405898749E0F0
:1026800050E066E176E0C8010E94EB2741E0980146
:10269000892B09F440E009E010E065EF75E084E083
:1026A00078DF2996E4E00C94A1270F931F93CF9332
:1026B000DF93EC0144E050E06EE076E00E94EB270F
:1026C00041E0892B09F440E004E010E09E016DEF49
:1026D00075E082E05EDFDF91CF911F910F91089549
:1026E000AF92BF92CF92DF92EF92FF921F93CF9360
:1026F000DF9300D000D00F92CDB7DEB75B0180E052
:1027000090E00E94F526182F811509F460C0809191
:102710001C01482F50E0811141E060911D01709132
:102720001E01675F794FCE0105960E94F827C09081
:102730000506D0900606E0900706F0900806D5D86A
:10274000DC01CB018C199D09AE09BF0984369105C6
:10275000A105B10538F48AE096E00E949C0B9D81AA
:102760008917A9F181E090E00E94F5268115E9F131
:1027700080912401482F50E0853008F044E06091BA
:10278000250170912601675F794FCE0101960E9465
:10279000F8278AE096E00E949C0B9D81891325C052
:1027A000A4D860930506709306068093070690935D
:1027B000080689819A81AB81BC8180930106909340
:1027C0000206A0930306B093040681E00FC0809137
:1027D0000A0690910B06A0910C06B0910D06898314
:1027E0009A83AB83BC831111E4CF80E04091010652
:1027F000509102066091030670910406F501408332
:102800005183628373830F900F900F900F900F90FE
:10281000DF91CF911F91FF90EF90DF90CF90BF900D
:10282000AF90089548E050E067E170E08DE896E0F1
:102830000E941E281092A003089585E080938D06C3
:1028400080914F0190915001A091510180938E068B
:1028500090938F06A09390068FE7809391068FEF59
:1028600080939206DFCFCF92DF92EF92FF92CF93C9
:1028700048D8AB01BC0140939703509398038093D1
:10288000990370939A0380919B03C0914E01C230CB
:1028900009F443C0A0F5C1113DC01092000140935E
:1028A0009C0350939D0360939E0370939F038091BC
:1028B000F40581111EC0C090B503D090B603E0901E
:1028C000B703F090B80380913D06811501F10DD852
:1028D0006C197D098E099F09613C774289409105F9
:1028E00040F480918D06982F937019F08695869507
:1028F000C82FC0939B0381E080934E0102C0C33078
:10290000B1F0CF91FF90EF90DF90CF9008950E94AB
:10291000810CDECF0E943F09F4CF809304018091A7
:102920008D0683708093030196D983E0E5CF809173
:10293000A003811177DFC0909C03D0909D03E090AD
:102940009E03F0909F0380913D06811571F00E94D7
:10295000750C6C197D098E099F096031710581051F
:10296000910578F210924E01CCCF0E94810CF1CFEC
:10297000AB0124E630E0BC0188E70E942C259C01D5
:1029800081E0232B09F080E008958091ED05811509
:10299000F1F00E94750CDC01CB01805A9541AF4FDC
:1029A000BF4F8093E7059093E805A093E905B093A6
:1029B000EA058091EF0581110AC062E070E080EDC8
:1029C00091E0D6DF811519F081E08093EF0508953D
:1029D0008091ED05811561F08091EF05811541F041
:1029E00062E070E08EEC91E0C3DF81111092EF05A0
:1029F0000895CF93DF93682F81E06A3019F06D302E
:102A000029F480E072D0DF91CF9108958091B903CD
:102A10009091BA0326E0FC01A1E9B3E001900D9288
:102A20002A95E1F726E0603E08F455C0FC011192BA
:102A30002A95E9F7C091B903D091BA0346E050E076
:102A4000BE0181E993E00E94EB279E01235E3340A3
:102A5000892B41F1C90145E0969587954A95E1F7A3
:102A600041E050E0BA0102C0660F771F8A95E2F795
:102A7000CB016091E5057091E605862B972BB90196
:102A80006B5F7F4FE5E076956795EA95E1F702C0C9
:102A9000440F551F6A95E2F7842B952B8093E5052B
:102AA0009093E6052A5F3F4F4091BB03642F70E08F
:102AB000C9010E946327481B463010F4240F311DC2
:102AC000323010F020E030E02D513C4F2093B9031C
:102AD0003093BA0398CF629FB00111246E527E4F9B
:102AE00046E050E00E94E227A5CFCF93382FE09137
:102AF000B903F091BA03E35EF3402091BB03622F68
:102B000070E0CF010E946327281B822F311561F0EE
:102B100066E00E94AE27C82FC11102C0CF91089570
:102B2000C15080E266DFF8CF8E0F9F2F911D92304B
:102B300010F080E090E08D519C4F8093B90390930A
:102B4000BA03ECCFCF93DF93EC01FE0184918111A6
:102B500003C0DF91CF9108954CDF2196F6CFF2DFCD
:102B600081E0C3CF1F921FB61F9211248F939F93B2
:102B7000AF93BF938091A103811113C08091E502AF
:102B80009091E602A091E702B091E8024196A11D62
:102B9000B11D8093E5029093E602A093E702B09303
:102BA000E802BF91AF919F918F911F901FBE1F9020
:102BB00018952FB7F8948091E5029091E602A091C4
:102BC000E702B091E8022FBF0895CF93DF93EC01A5
:102BD000F0DF8C1B9D0BDF91CF910895ACE0B0E04E
:102BE000E4EFF5E10C947E27FE013196DF0188E0E9
:102BF0001D928A95E9F782E3C82E82E0D82E7F01E4
:102C0000AE2E9F2C0CE312E0F60181916F018F3FF5
:102C100009F43DC0F894E82FE295EF70F0E021A1AF
:102C20008F7041E001C0440F8A95EAF7922F942BF0
:102C300091A392A1842F8095892382A3789400C0C8
:102C4000E6E3F2E031E0B12C21912F3F79F0A22FA1
:102C5000A295AF70A05EB0E08C9190E02F7002C0A2
:102C6000959587952A95E2F780FF93C080E0B82A72
:102C7000330F0E171F0741F7F60182918F3F11F0B6
:102C80000E94EA0880EA8A95F1F7F701B0828FEF97
:102C9000E81AF80A86E392E08C159D0509F0B4CF96
:102CA00048E050E06A2D792D85E396E00E94EB27FD
:102CB000009749F028E0EA2DF92DA5E3B6E0019050
:102CC0000D922A95E1F70091340610E0045D194F4A
:102CD000892B09F460C081E080932B066ADF809322
:102CE000290690932A0680913D06811509F4ABC010
:102CF0007E0189E0E80EF11CF70184E011928A95CB
:102D0000E9F7809124068A3008F068C040E753E173
:102D1000B701C8010E94F80D811509F483C045E58B
:102D200053E1B701C8010E94F80D811509F47AC07A
:102D30004FE652E1B701C8010E94F80D811509F470
:102D400071C04BE253E1B701C8010E94F80D811533
:102D500009F468C04EE053E1B701C8010E94F80DC4
:102D6000811509F45FC0109224068091280690E036
:102D700044E050E0B701845D994F0E94EB2721E0C9
:102D800020932706892B09F03FC02C96EBE00C948A
:102D90009A27832F6CCF80912B06811509F4A3CF3E
:102DA000E0902906F0902A0604DF8E199F09059706
:102DB00008F499CF44E050E065E376E0C8010E9452
:102DC000EB27892B41F084E0E5E3F6E0D8010190A0
:102DD0000D928A95E1F710922B0685CFC0902506BB
:102DE000D0902606E6DE8C199D09843F914008F0BC
:102DF0008DCF80912706811541F2F70184E0119271
:102E00008A95E9F710922706E0912806F0E0E45D44
:102E1000F94F89859A85AB85BC8580839183A28390
:102E2000B383B3CF809124068F3F31F4C2DE809309
:102E3000250690932606DDCF8F5F809324068A3087
:102E400008F493CFF3CFE0902806F12CC701845DFE
:102E5000994F7C01F80180819181A281B381809397
:102E60000A0690930B06A0930C06B0930D068AE019
:102E700096E00E949C0B8093090680910E0690912B
:102E80000F06A0911006B0911106F701808391837F
:102E9000A283B383C0901206D0901306E09014066C
:102EA000F09015068091200690912106A0912206AF
:102EB000B0912306C816D906EA06FB06B1F0C09207
:102EC0002006D0922106E0922206F09223060E946C
:102ED000750CC61AD70AE80AF90AC0923F06D092C2
:102EE0004006E0924106F092420688E0E6E1F6E014
:102EF000ADE8B6E001900D928A95E1F780911E064B
:102F00000E94680A80911F06811511F03EDD3DCFB9
:102F10005FDD3BCFFF920F931F93CF93DF93C62FBD
:102F2000D42FF22E8115A9F060938B0642DE809398
:102F3000ED029093EE0281E0C1FD84E0C0FD880FB8
:102F4000C2FD82950E94940FCDB7DEB7E5E00C94E8
:102F5000A02780918B06681334C00091ED02109178
:102F6000EE0227DE801B910B883C910550F51D2F4A
:102F7000105ECD17A1F0C77001E0802F01C0880F4F
:102F8000CA95EAF70E949D0F183048F48D2F87707C
:102F900001C0000F8A95EAF7802F0E94940F8F2DB1
:102FA0000E94140F8F2D0E946F0F81E0D1FD84E0ED
:102FB000D0FD880FD2FD8295183030F60E949D0F0B
:102FC000C3CF81E0C1FD84E0C0FD880FC2FD8295C2
:102FD000F5CFA0E0B0E0EFEEF7E10C9481277C01A3
:102FE000FC018481811509F472C061E0C7010E946F
:102FF0009808EC01F7018581811509F462C491817B
:1030000090938A0690819093890690E290934D0167
:10301000C0938706D09388069E013052303218F54F
:103020009681903128F0EC2FF0E0ED33F10568F156
:1030300010928B069E0130572332310508F056C49A
:1030400084E090E00E94192880939D0690939E064C
:10305000FE01E150F047E232F10508F054C0E95AB0
:10306000F74D0C94DC279E0130543031C8F29E019C
:1030700031503F31C0F29E01205A32452032310595
:10308000B8F2CD33D10530F4FE01EB57F54FE491A2
:10309000E0934D01FE01E851FC47E730F10540F6B1
:1030A000E758F74D0C94DC2726E241EE61EE32DF63
:1030B00080919C06877059F0F7018581811539F060
:1030C00080919E0682FF03C082E00E94FC0ACDB779
:1030D000DEB7E8E00C949D2727E245EE65EEE7CFEA
:1030E00026E241EE60EEE3CF27E245EE64EEDFCF6D
:1030F00026E241EE62EEDBCF27E245EE66EED7CF69
:1031000028E241E0EBCF80919D06816080939D068F
:1031100060919D0670919E0684E090E00E94472891
:103120000E94A30FC5CF80919E06886080939E0663
:10313000EFCF80919D068260E9CF80919D068460EB
:10314000E5CF80919D068860E1CF80919E068160E9
:10315000EDCF80919E068260E9CF80919D068061CF
:10316000D5CF80919D068062D1CF80919D068064ED
:10317000CDCF0E94A30F80919D068068C7CF80911C
:103180009D068C60C3CF80919E068360CFCF8091D7
:103190009D068E7FBBCF80919E06877FC7CF809193
:1031A0009D068D7FB3CF80919D068B7FAFCF8091A1
:1031B0009D06877FABCF80919E068E7FB7CF809193
:1031C0009E068D7FB3CF80919D068F7E9FCF80918D
:1031D0009D068F7D9BCF80919D068F7B97CF0E9410
:1031E000A30F80919D068F7791CF80919D06837F5D
:1031F0008DCF80919E068C7F99CF90919D06892FCF
:103200008B7F92FF8460877F92FF88607FCF809161
:103210009E06982F909590FB80F990FB81F986CFC0
:1032200090919D06892F8F7B96FF80646FCF0E94BF
:10323000A30F90919D06892F97FB87F9805866CF41
:1032400061E08EE090E00E942D2862CF60E0F9CF2F
:1032500090919D06892F8F7E94FF806157CF90912A
:103260009D06892F8E7F90FF816050CF90919E06A2
:10327000892F877F93FF886059CF89E234C3927288
:10328000FE01E052F847EB30F10508F074C0E05859
:10329000F74D0C94DC270E94800A0ACF911509F49F
:1032A00045C00E94940A04CF911509F445C00E94BC
:1032B0001A0BFECE911509F445C00E942D0BF8CED5
:1032C000911509F445C00E94430BF2CE911509F403
:1032D00045C00E94570BECCE909195069272FE016C
:1032E000E054F847EF30F10508F045C0E557F74DD9
:1032F0000C94DC2780918D06837011F410924E019E
:1033000080918D068C7F816080938D060E940009DC
:10331000CFCE80918D06837011F010924E01809176
:103320008D068C7FF1CF911509F4BBCF0E94890ADD
:10333000BFCE911509F4BBCF0E94120BB9CE9115E7
:1033400009F4BBCF0E94220BB3CE911509F4BBCF79
:103350000E94380BADCE911509F4BBCF0E944E0BE5
:10336000A7CE911529F00E94760BA2CE9115D9F324
:103370000E94600B9DCE9E01205E324520323105B9
:10338000A0F4811124C0CF7181E090E002C0880FC9
:10339000991FCA95E2F7EC01682F83E090E00E9444
:1033A0002D28CE010E949E0583CE811581F1CB355B
:1033B0009CE7D90711F1CC359CE7D90799F0CA35BC
:1033C0009CE7D907C1F0C1309CE7D907F1F0C330C1
:1033D0009CE7D907A1F0C115DC47C9F40E94A30FEF
:1033E0000E949C0C80919E06002482FF0394802DF5
:1033F0000E94A80E5DCE81E0FBCF80E0F9CF6FEF99
:103400007FEF80E090E00E9447280E94C00FF70104
:1034100000811181811509F459C0C8010E94640816
:10342000C82F682FC8010E94A305B8018C2F0E94E5
:1034300063060E947807D82FC92FF701D58006812F
:1034400002950F7080919C06877001F1CD2CD114EC
:10345000F1F0892F807F803461F08D2F805E88307D
:10346000A8F0892F807E803221F4D23078F00115C7
:1034700069F080919E0682FF09C082E00E94FC0AEA
:1034800080919C068770CC24C3948111C12C8C2F11
:1034900082958F70883009F404C1B8F58430D8F46F
:1034A000823008F443C01C2F1F70C07FC03211F05F
:1034B0001295107FD13008F471C009F4B8C0D1144E
:1034C00009F4C2C0011509F487C047C0C8010E94B1
:1034D000D805C82FAACF09F4C8C0C11409F418C16F
:1034E00080919C0680FD14C1F70115828695869512
:1034F00086950E94DE0AC7016CDD80919C06869548
:10350000869586950E94EC0A03C1893009F458C15A
:103510008A5F8F70823008F7D23F09F062C18C2F2A
:103520008F71D1105BC10E94DE0AF0C01C2F1F708A
:10353000C03110F01295107FD114B9F0111569F057
:103540008D2F805E883010F0D11109C080919506D2
:10355000812B809395060E94BE0E8D2F2FC08091E7
:103560009F06812B80939F06F6CF8D2F0E946F0FB1
:10357000111509F4B2CF8D2F805E883010F0D11173
:1035800004C0812F0E945B0606C0109580919F06A3
:10359000812380939F060E94BE0E9FCF80919E063E
:1035A00082FD16C0D11469F0111539F0809195068D
:1035B000812B809395060E94BE0E80E00E94140F1E
:1035C0008CCF80E00E946F0F111509F486CFD9CF00
:1035D000D11499F0013020F4812F0E94940F7DCFF7
:1035E00009F07BCF80919606912F9823191709F443
:1035F00074CF812B8093960670CF01116ECF812FEF
:103600000E949D0F90919606812F892329F0812F8A
:10361000809589238093960680919706912F982311
:1036200009F45BCF109518231093970656CFD11449
:1036300021F0063008F051CFCFCF053008F04DCF44
:10364000812F0E949D0F49CF0115D1F3D93349F441
:103650008FEF97EE23E0815090402040E1F700C0CB
:1036600000008D2F0E946F0F38CF8C2F8695869586
:103670008370813060F009F030CF8D2F9C2F9370D4
:10368000D11002C080E090E00E94EF0B26CF8D2F7A
:103690009C2F9370D11002C080E090E00E94C80B74
:1036A0001CCF8C2F837009F046C0D1102FC04D2F36
:1036B000429546954770440F440F2D2F2F7030E0F0
:1036C000042E02C0220F331F0A94E2F780E090E03C
:1036D000D4FF09C08FE090E002C0880F991F4A957F
:1036E000E2F780959095C695C695C370C230D1F02B
:1036F000C330A9F04091980650919906C13069F005
:10370000822B932B842395230E949E050E94B50B48
:1037100060E0C7010E949808DACC242B352B822B5D
:10372000932BF2CF822B932B209198063091990600
:1037300082279327E9CFD11491F1C0FFE7CF4D2F16
:10374000429546954770440F440F2D2F2F7030E05F
:10375000042E02C0220F331F0A94E2F780E090E0AB
:10376000D4FF09C08FE090E002C0880F991F4A95EE
:10377000E2F780959095C695C695C370C230B9F0B2
:10378000C33091F040919A0650919B06C13051F0A0
:10379000822B932B842395230E94D80AB7CF8230A3
:1037A00070F6B4CF242B352B822B932BF5CF822BA5
:1037B000932B20919A0630919B0682279327ECCF7A
:1037C000CF70D11439F08C2F0E94DE0A8D2F0E9409
:1037D000940F9CCF8D2F0E949D0F8C2F0E94EC0A7E
:1037E00095CF70F4D03FC9F0D13F91F0D11409F4D6
:1037F00054C0011509F44EC08D2F0E94140F86CFBE
:10380000D33F11F1D43F91F790919E0692FD2AC0CB
:103810008C2F8F71D11411F386CED11499F005300D
:1038200008F074CFCF7181E090E002C0880F991F3B
:10383000CA95E2F7EC0180919A0690919B068C273D
:103840009D27AACF0630ECCF80E090E0D11409F498
:10385000A3CFCF7181E090E002C0880F991FCA9575
:10386000E2F79ACFD11461F08C2F8F7192FF5BCE6B
:10387000982F990F990F990F936090939C0653CEB0
:1038800081E00E94FC0A023008F440CF82E00E94EE
:10389000FC0A3CCF8C2F8F7146CE011579F0D933BD
:1038A00049F48FEF97EE23E0815090402040E1F7FC
:1038B00000C000008D2F0E946F0F28CF8C2F8F71BA
:1038C0008DCFFE01E851FC47E730F10508F4E8CB65
:1038D000C6319CE7D90709F0FFCC80918C06811591
:1038E00009F4CBCC85E30E944A0C14C09091950654
:1038F000C6312CE7D20709F0C2CC9A7A81E0911147
:1039000001C080E080938C0685E3911101C089E2BB
:103910000E94160C0E94BE0ECBCB8091E006803137
:1039200070F48091DF06811551F0E091A10620919D
:10393000A0063091DB064091DA062E1301C00895EF
:10394000BF0187E0E89FF0011124DF01AE55B94FB8
:1039500014968C911497811551F111968C911197B1
:10396000831325C08C91841322C015968C911597D2
:1039700081111DC012968D919D91A091DC06B09190
:10398000DD068A1B9B0B883C910588F48091E0063C
:103990008F7080618093E006E855F94F80818F70C9
:1039A000806180838AED96E014DB0C942A066F5FB9
:1039B0007F4FFB01E770C1CFADE0B0E0E2EEFCE18C
:1039C0000C947C278C0186E0F801DE0118960190AA
:1039D0000D928A95E1F7F801F580C4808AED882E72
:1039E00086E0982E7090DE0671101FC0C114D1F0D1
:1039F000F11409F415C1C8010E94BD08811509F42C
:103A00000FC187E0F801D40101900D928A95E1F78A
:103A10008C2D813031F48091DA069091DB060E9482
:103A2000B3087BDFFF24F39453C0E080A280B3800F
:103A3000D090DF068091DC069091DD069501281B71
:103A4000390BD11409F4B5C0283C310508F08DC0FC
:103A5000C11441F39091DB06C1808091E006803172
:103A600008F056C0C91213C09091DA069E110FC01B
:103A7000F11048C08F7080618093E0068AED96E077
:103A8000A8DA8091E006F8018683F12C21C0F110BC
:103A900039C040E06C2D8E2D0E940B0640E06C2D4D
:103AA0008E2D0E940B06F82E8111EFCF8885998507
:103AB0000E94B308292F22952F70903470F49F70C4
:103AC000223098F09115A9F0F8019681903188F490
:103AD0008F2D2D96EDE00C9498272A5F2F702230C1
:103AE00060F0C80176DAFD2CF3CF911511F0811545
:103AF00079F3805E883060F3F4CF803F48F3815FD4
:103B00008330F9CF8091E00681608093E006BDCFDD
:103B1000C91207C09091DA069E1103C0F11409F48E
:103B200069C0C8010E94BD08811509F479C0F1146B
:103B300009F476C08091E006803270F02091DA06B8
:103B40003091DB0629833A83AB82BC827D821E8260
:103B50008F83CE0101963DDA87E0F801AAEDB6E049
:103B600001900D928A95E1F75CCF8091E00680315B
:103B700048F48AED96E02DDAF40187E011928A95F7
:103B8000E9F783CFC11409F44DCF2091DB06918171
:103B90002913C7CF9091DA069E11C3CFF110C1CF80
:103BA0008683C80116DAF40187E011928A95E9F755
:103BB00039CF283C310500F7C11409F433CFF11493
:103BC00079F19091DB068181981320C08091DA060B
:103BD0008E111CC08091E00680FD0FC0803168F01E
:103BE0008683807F803F39F08681982F907F905F19
:103BF0008F70892B8683C801ECD987E0F801AAED84
:103C0000B6E001900D928A95E1F70CCFC8010E94B1
:103C1000BD088111A1CF8091E00681608093E0060C
:103C2000C801D7D9FFCEABE1B0E0E9E1FEE10C94E9
:103C300085274E8B5F8B688F798F8A8F192F9B8F8B
:103C4000911110929F061D8A86E0FE017696DE0194
:103C50001F9601900D928A95E1F70A8D011561F08A
:103C60000B8B1C8B61E0CE010F960E94980861E0DF
:103C7000CE010F960E9498080B8B1C8B87E0FE01EB
:103C80003F96DE01189601900D928A95E1F7CE01DC
:103C9000089692DE81112EC02091A0063091A106D7
:103CA00087E0AE01485F5F4FFA0147505109DA01E2
:103CB00001900D928A95E1F78C858115D9F0822FBC
:103CC00090E08395877090E0AC0134171506E1F021
:103CD00097E0929FD0011124AE55B94F9E012F5FFE
:103CE0003F4FF90101900D929A95E1F74093A0069C
:103CF0000E942A068091A1069091A006891311C006
:103D00006B96E4E00C94A1270E94A30F1092A006EA
:103D10001092A106EAEDF6E087E011928A95E9F7A4
:103D2000E9CF27E0829FC00111248E55994F44DED0
:103D3000811531F38091A1069091A20601968770BA
:103D40008093A106D7CFA6E0B0E0E9EAFEE10C94AB
:103D500085270E94D9158C018091430690914406D5
:103D60008017910771F019821A820E94D915BC013F
:103D700049815A8180E090E056DF0093430610931A
:103D800044062696E4E00C94A127CDB7DEB7289729
:103D90000FB6F894DEBF0FBECDBF85B7806885BF74
:103DA00085B7806885BF84B7877F84BF0FB6F894D6
:103DB000A8958091600088618093600010926000F7
:103DC0000FBE80E890E00FB6F89480936100909366
:103DD00061000FBE81E080934C0188EE98E08093F3
:103DE000A8029093A9020E94DA0D0E948B0D809187
:103DF000E20084608093E20078948091A3038115AF
:103E000099F08091E9001091EC008F7010FB112760
:103E100017F9182B1092E9008091E80083FD0E94A9
:103E2000CC0F1F701093E90082E084BD93E095BD34
:103E30009AEF97BD80936E0010923F061092400655
:103E4000109241061092420688EC90E02091E30027
:103E500027FD0EC0EFE3FCE93197F1F700C0000049
:103E60000197A1F70E94DA0D1092A30380E001C030
:103E700081E080933D0680933E0680930501811189
:103E8000D3D680913E0691E08927880F880F8093D2
:103E9000340694E0981B90932806A2E3EA2EA2E051
:103EA000FA2E06E312E0F70181917F018F3F11F0B6
:103EB0000E94EA080E151F05B1F7F6E3EF2EF2E0B7
:103EC000FF2E0CE312E0F70181917F018F3F11F08B
:103ED0000E94EA080E151F05B1F7ECE2F6E088E053
:103EE00011928A95E9F7E5E3F6E088E011928A9568
:103EF000E9F780E090E00E941928833E9E4F69F127
:103F000063EE7EEF80E090E00E94472860E082E070
:103F100090E00E942D2881E090E080939806109216
:103F2000990661E083E00E942D2860E074E184E05E
:103F300090E00E9447280E941D1460E070E0AB01F1
:103F40008FE090E00E943F2860E070E0AB0183E1E9
:103F500090E00E943F280E94121482E090E00E94AC
:103F600011288093AC0384E090E00E94192880938C
:103F70009D0690939E060E94EE158FEF96E721E036
:103F8000815090402040E1F700C000000E94EE15F3
:103F9000E0913E0611E0E127EE0FEE0FF0E0E45D68
:103FA000F94F808181FF08C06FEF7FEF80E090E0E4
:103FB0000E9447280E949C0C83E090E00E941128F8
:103FC00090E00E949E0580919A0690919B060E9427
:103FD000AE0A0E948F0B1093A00348E050E067E107
:103FE00070E08DE896E00E9401281092A003809175
:103FF0008D06843010F40E941D1480913D068127A7
:10400000880F8093E30580E88093BB03A8D46BE01E
:1040100070E089E298E00E94B8148115E9F180917E
:10402000E30565E070E081FDCAC084E298E00E948B
:10403000B814811589F16DE070E082E198E00E948A
:10404000B814811549F10E94750CDC01CB01805A2E
:104050009541AF4FBF4F8093E7059093E805A0933C
:10406000E905B093EA05E3EEF3E0DF0180E092E0DA
:104070001D920197E9F7E093B903F093BA038FEF2C
:104080009FEF8093E5059093E60581E08093ED0531
:104090008093EF051092E40580913D06811101C0E7
:1040A000C6D586E091E08093650690936606D12C94
:1040B000C12E8091A30300E110E472E1F72E853058
:1040C00009F4DBC00E94EE155DEAA52E53E0B52E83
:1040D0006CE2862E66E0962EF401D5019D918081DA
:1040E00025EB33E02A173B0709F4D4C03196981723
:1040F000A9F320903D0644EAE42E43E0F42E712C0F
:10410000F40161904F01F50141905F01461409F4FB
:1041100041C0462400E010E055245394852D8421AD
:1041200089F1352C36202114F9F0F701808190E0D7
:104130009601002E01C0220F0A94EAF78223892BF0
:1041400099F409837A820E94D9158B839C8381E03C
:104150008D8391E0311001C090E09E8349815A81A6
:104160006B817C818D815FDD31100CC08C2D002E28
:1041700001C0880F0A94EAF7982F9095F701808183
:1041800089238083550C0F5F1F4F0630110531F6D0
:10419000F501629273948FEFE81AF80A872D883040
:1041A00009F0AECF0E94810C6093B5037093B60303
:1041B0008093B7039093B803BB24B3946FC08FE18F
:1041C00098E035CF8091A303843051F10E943314DD
:1041D00081E00E94680A0E94E8141092A10388E11D
:1041E00090E00FB6F894A895809360000FBE1093EE
:1041F000600083B7817F846083BF83B7816083BFA2
:104200007894889583B78E7F83BF0FB6F894A8956E
:1042100080916000886180936000109260000FBE02
:104220000E94EE15ECE2F6E0A4EAB3E080E0219112
:104230002D9391E0211101C090E0892B96E0E433A9
:10424000F907A9F78115C9F08091A2038115A9F09A
:1042500009BDF9BC09B400FEFDCF8091D8008F7D67
:104260008093D8008091E00082608093E00080918C
:10427000E00081FDFCCF0E94A30F8091A303853055
:1042800009F4A0CF0E94A30F0E94B50B80E00E940A
:10429000680A18CF98132DCF56DDB12C0E94331425
:1042A0008091ED05811509F44BC10091EB0510914A
:1042B000EC050E94D915801B910BC29708F464C0CD
:1042C0000E94D9158093EB059093EC0583EE93E063
:1042D0008093B9039093BA0380913D06811509F448
:1042E0007FC18DE998E00E94A21580919A06909175
:1042F0009B060E947F05823009F439C108F02FC166
:10430000811132C185E998E00E94AF1580918A063B
:10431000805D0E94F9148AE798E00E94A2158091BE
:104320008906805D0E94F91486E798E00E94A21534
:10433000409087065090880680911001909111015D
:104340004816590609F019C18091C203803209F05C
:1043500014C1ECEBF3E08F0181918032E1F3F801BD
:1043600001900020E9F731977F010E151F0508F431
:1043700031C184E798E00E94A21580914D010E940E
:10438000F91481E00E9475158091E5059091E6058C
:10439000892B09F4BAC08091ED05811509F4B5C0E7
:1043A0008091E4058111B1C00E94C5148091E5059A
:1043B0009091E605009709F4A8C080FBEE24E0F890
:1043C000F12C612C80FD0DC063947601062C02C097
:1043D000EE0CFF1C0A94E2F79C012E213F21232BB7
:1043E00099F38091E30580FF00C1962D990F990FF5
:1043F000990F392F395F80E023E090931401809367
:104400001701309315012093180124E630E047E0AE
:1044100050E062E171E088E7D5D2892B09F075C0E0
:1044200080E2689E300111248091E30580FFEFC097
:10443000E3ECF3E080E211928A95E9F78CE292E0F6
:104440008F83988798E2492E92E0592E60E372E0BC
:10445000AF81B885ED91AF83B887D2018D912D01E1
:104460001301280E311CF0E0ED53FC4F20E030E04A
:1044700087E0882E821AAC2C022E01C0AA0C0A9466
:10448000EAF781010D511C4F90E0D8018D918D010B
:104490008A21482D491B477050E0A82F042E01C0E7
:1044A000AA0F0A94EAF7519541955109477001C046
:1044B00086954A95EAF78A2B4081842B80839F5FFB
:1044C000983019F72F5F3F4F31962830310581F62C
:1044D0008F8198856817790709F0BACF04E610E054
:1044E00020E230E043EC53E060E488E7FBD2892B24
:1044F00061F4E094F0948091E5059091E605E8225E
:10450000F922E092E505F092E6058091EF0581152C
:10451000B9F00E94750C0091E7051091E805209113
:10452000E9053091EA05DC01CB01801B910BA20B60
:10453000B30B8F3F9F4FAF4FBF4710F40E94E8145B
:10454000B1100E94C5140E94B50B9091EE05891719
:1045500009F4AFCD8093EE050E94750CAACD83308F
:1045600049F08CE798E0D0CE8FE898E0CDCE89E88E
:1045700098E0CACE82E898E0C7CE409210015092EF
:10458000110180E28093C203612C712C1092C1034F
:1045900031ECE32E33E0F32E8301B201C3012AE0B4
:1045A00030E040E050E0E6D4605D603341F4011556
:1045B000110529F045284628472809F460E2F7014B
:1045C00062937F0129013A010F5F1F4F05301105EA
:1045D00021F7BFCEF80181918F010E94F914C5CE59
:1045E00084E398E00E94A215CFCE20E2629EC00133
:1045F0001124880F492F441F550B5195242F962DB8
:104600009295990F9076392F315E842FF6CEA301C3
:104610004D515C4F04E610E020E230E065CF789425
:104620001F921FB61F9211248F939F93AF93BF9336
:104630008091E5029091E602A091E702B091E80234
:104640000196A11DB11D8093E5029093E602A0930F
:10465000E702B093E802BF91AF919F918F911F90B5
:104660001FBE1F9018951F920F920FB60F92112424
:104670002F933F934F935F936F937F938F939F936A
:10468000AF93BF93EF93FF938091E10082FF09C046
:104690008091E20082FF05C08091E1008B7F8093D2
:1046A000E1008091DA0080FF24C08091D80080FF73
:1046B00020C08091DA008E7F8093DA008091D9004B
:1046C00080FFA9C080E189BD82E189BD09B400FEF7
:1046D000FDCF81E08093A3038091D402811109C0B2
:1046E0000E94DA0D0E948B0D8091E200846080931D
:1046F000E2008091E10080FF1AC08091E20080FF1B
:1047000016C08091E2008E7F8093E2008091E200EB
:1047100080618093E2008091D80080628093D8000D
:1047200019BC85E08093A30383E080934C018091C2
:10473000E10084FF2FC08091E20084FF2BC080E164
:1047400089BD82E189BD09B400FEFDCF8091D8000A
:104750008F7D8093D8008091E1008F7E8093E1006F
:104760008091E2008F7E8093E2008091E200816080
:104770008093E2008091D302811509F452C084E055
:104780008093A3038091A303843009F052C082E098
:1047900080934C018091E10083FF2CC08091E20066
:1047A00083FF28C08091E100877F8093E10082E051
:1047B0008093A3031092D3028091E1008E7F8093B7
:1047C000E1008091E2008E7F8093E2008091E20020
:1047D00080618093E20042E060E080E00E940B0D87
:1047E0008091F00088608093F00081E080934C011C
:1047F00080934B01FF91EF91BF91AF919F918F916A
:104800007F916F915F914F913F912F910F900FBECC
:104810000F901F90189519BC1092A3031092D40208
:1048200068CF8091E30087FF02C083E0A9CF81E0D9
:10483000A7CF81E0ADCF1F920F920FB60F92112438
:104840001F932F933F934F935F936F937F938F9318
:104850009F93AF93BF93CF93DF93EF93FF93E9EED3
:10486000F0E080811091EC008F7010FB112717F998
:10487000182B1082C0EFD0E08881877F88837894DE
:104880000E94CC0FE9EEF0E0108288818860888376
:104890001F701083FF91EF91DF91CF91BF91AF9186
:1048A0009F918F917F916F915F914F913F912F9148
:1048B0001F910F900FBE0F901F901895EF92FF92CF
:1048C0001F93CF93DF93182FEB011092BC0084EA63
:1048D0008093BC000E94D9157C018091BC0087FFA9
:1048E00026C08091B900887F883029F08091B90076
:1048F000887F803189F51093BB0084E88093BC00E9
:104900000E94D9157C018091BC0087FF1EC02091B8
:10491000B900287F80E090E0283189F081E090E0C4
:10492000203409F480E091958195910908C0C70170
:104930000E94E515C817D90780F68EEF9FEFDF912B
:10494000CF911F91FF90EF900895C7010E94E51548
:10495000C817D907C0F6F1CF8FEF9FEFF0CF1092B5
:10496000B9008CE08093B80008950F931F93CF9304
:10497000DF93EB018093BB0084E88093BC000E942E
:10498000D9158C018091BC0087FF10C02091B9001F
:10499000287F81E090E0283209F480E091958195AC
:1049A0009109DF91CF911F910F910895CF3FDC07BF
:1049B00049F3C8010E94E515C817D90718F78EEF0B
:1049C0009FEFEFCFA0E0B0E0E7EEF4E295C2982EC3
:1049D000862E772E6A0179010E94D9155C0184E147
:1049E000E816F10410F18FEFE816FE0409F1C70193
:1049F00064E170E068D2162F072F612F702F892D88
:104A00005DDFEC01892BB1F4082D172DC00ED11EEE
:104A10000C151D0511F02097C1F084E98093BC00AE
:104A2000CE01CDB7DEB7EDE083C211E000E0E5CF07
:104A300015E0FCCF8FEFE816FE04F9F2C5010E94E5
:104A4000E515E816F906C8F6DFCFB701F801819140
:104A50008F018BDFEC01DCCFA0E0B0E0E1E3F5E219
:104A60004BC2982E862E772E6A0189010E94D91595
:104A70005C010431110500F10F3F100701F1C8017D
:104A800064E170E020D2EB01BE01892D17DF7C01CB
:104A9000892BB9F4C82DD72DCC0EDD1ECC15DD0524
:104AA00019F0E114F104B9F084E98093BC00C70166
:104AB000CDB7DEB7EDE03CC2C1E0D0E0E5CFC5E068
:104AC000FCCF0F3F100701F3C5010E94E515081741
:104AD0001907D0F6DFCFFE018491B80146DF7C01D3
:104AE0002196DCCFA0E0B0E0E7E7F5E204C2982E23
:104AF000862E742E652E6901E8010E94D9155C018D
:104B00000431110508F10F3F100711F1C80164E1EC
:104B100070E0D9D1F62EE72E6F2D7E2D892DCEDEB9
:104B20008C01892BC1F0CF3FDC07B1F3C5010E9496
:104B3000E515C817D90780F784E98093BC00C80140
:104B4000CDB7DEB7EEE0F3C1FF24F394E12CE4CF60
:104B500085E0F82EFBCFBE01882D07DF8C01E72C06
:104B6000F62CCE0CDF1CEC14FD0431F301151105FD
:104B700019F7BE01F70181917F01F7DE8C01F3CFB8
:104B80008EE14A9B02C08150E1F74A9BFECF089517
:104B90005A9880E28A95F1F75A9A0895FC018BE0C1
:104BA0008A95F1F728E080E090E031E040E14A9515
:104BB000F1F7880F4A9B02C08160932742E04A9533
:104BC000F1F7000040E14A95F1F7215079F720E133
:104BD0002A95F1F729B132E03A95F1F7000030E17A
:104BE0003A95F1F731E022FD93272081920F9083CF
:104BF0000895A1E0B0E0EEEFF5E285C119828C01E5
:104C00007C01E60EF11CBCDFCE010196C7DFF80186
:104C100081938F01EE15FF05B1F781E09981911124
:104C200080E02196E6E08BC1529A5A9A08955298F4
:104C30005A9AEA9AE9E6F0E080818F7C80830895B1
:104C40006150770B91E001C0990F6A95EAF7692FDF
:104C500090E021E0611108C0911591F05A9A80E22C
:104C60008A95F1F75A980895362F382339F05A9AD1
:104C7000922730E23A95F1F76695ECCF5A98F9CF42
:104C80005A98EDCFFF920F931F93CF93DF93EC01D0
:104C90008C01060F111D8991F82E7ADF68E08F2DA7
:104CA000CFDFC017D107B9F7CDB7DEB7E5E048C110
:104CB0001F920F920FB60F9211240F931F932F93F1
:104CC0003F934F935F936F937F938F939F93AF9394
:104CD000BF93EF93FF93CF93DF930F92CDB7DEB7E0
:104CE00019824EDFCE01019659DF082F06950695F1
:104CF0000695282F22952570902F9570920F292FB9
:104D0000237096959695920F982797708981892B95
:104D100009F055C0073008F052C080E18A95F1F7DC
:104D20005A9A529A82E08A95F1F700C05A9888E020
:104D3000089F80011124D801A75EBE4F1696ED9101
:104D4000FD911897309791F0609130027091310287
:104D500014962D913D91260F371F15978D919D919A
:104D6000680F791F4C9113978C910995F801E75EB4
:104D7000FE4F6381611549F020913002309131027C
:104D800084819581820F931F7DDF02DF80E18A9508
:104D9000F1F75A9852985A9A80E18A95F1F7F801FA
:104DA000E75EFE4F6081611549F02091300230913D
:104DB000310281819281820F931F1BDFE1DE0F9010
:104DC000DF91CF91FF91EF91BF91AF919F918F9123
:104DD0007F916F915F914F913F912F911F910F9113
:104DE0000F900FBE0F901F9018950F931F93CF93A6
:104DF000DF93EC0107970CF05EC0F894529A5A9832
:104E000085E08A95F1F700009C2F969595708C2F80
:104E10008570980F892F837096959695292F93E02A
:104E2000CC0FDD1F9A95E1F7280F822F8C2B082FCE
:104E3000AFDE00C068E0802F03DF80E18A95F1F7E4
:104E400052985A9A4A9B30C087E090E04A992EC007
:104E5000FE01E75EFE4F6381611559F0209130023B
:104E60003091310284819581820F931FC2DE8115BA
:104E7000F9F086DE80E28A95F1F75A98529A80E13D
:104E80008A95F1F7C75EDE4F6881611549F0209180
:104E900030023091310289819A81820F931FF2DEB4
:104EA00077DE789481E008C000C0CCCF019749F448
:104EB000529A5A9A789480E0DF91CF911F910F9186
:104EC000089500C0C3CFAA1BBB1B51E107C0AA1F96
:104ED000BB1FA617B70710F0A61BB70B881F991F9B
:104EE0005A95A9F780959095BC01CD0108952F9210
:104EF0003F924F925F926F927F928F929F92AF926A
:104F0000BF92CF92DF92EF92FF920F931F93CF93B6
:104F1000DF93CDB7DEB7CA1BDB0B0FB6F894DEBF4D
:104F20000FBECDBF09942A88398848885F846E8473
:104F30007D848C849B84AA84B984C884DF80EE80BD
:104F4000FD800C811B81AA81B981CE0FD11D0FB6C6
:104F5000F894DEBF0FBECDBFED010895992778E02C
:104F6000880F991F961708F0961B881F7A95C9F726
:104F700080950895A1E21A2EAA1BBB1BFD010DC04E
:104F8000AA1FBB1FEE1FFF1FA217B307E407F507F9
:104F900020F0A21BB30BE40BF50B661F771F881FD5
:104FA000991F1A9469F760957095809590959B016B
:104FB000AC01BD01CF010895EE0FFF1F0590F491E4
:104FC000E02D0994FB01DC0102C005900D924150D7
:104FD0005040D8F70895FB01DC0104C08D91019089
:104FE000801921F441505040C8F7881B990B08954F
:104FF000FB01DC0102C001900D9241505040D8F7F6
:105000000895DC01CB01FC01F999FECF06C0F2BD89
:10501000E1BDF89A319600B40D9241505040B8F776
:105020000895F999FECF92BD81BDF89A992780B570
:105030000895A8E1B0E042E050E0E5CFDC01A40F24
:10504000B51F4150504040F0CB01840F951F2E9169
:1050500005D041505040D8F70895262FF999FECF3A
:1050600092BD81BDF89A019700B4021639F01FBABB
:1050700020BD0FB6F894FA9AF99A0FBE08950396D8
:10508000272FECDFEADF252FE9DF242FE7CF01967A
:10509000272FE4DFE2CFF894FFCFA910CF10D5106F
:1050A000CF10D51023114511D51035124212C71853
:1050B0002F19CF1899189D18D318A118D718E318CD
:1050C000AD182819B118E718B518EB181019B91848
:1050D000EF181719BF18F518FD18A518DB18A9182F
:1050E000DF18C318F9180719201926199318CB18B7
:1050F00036197018741854186C1878187C188018A1
:105100004B194E199319541999195A199F19601965
:10511000A5196619AB197A1989194B194E199319E2
:10512000541999195A199F196019A5196619AB19BB
:04513000B119B619E2
:1051340000FF00FFFF01720C8B0E9E0EAD0CA30E40
:10514400FF000021007F2200030000000100000096
:10515400000000000401000000040500000000003D
:10516400000409000000000000090D000000000018
:1051740000011600000000000000000100200300F0
:10518400FF78FF050200181712110A0919161310E7
:105194000B081A15140F0C07FFFFFF0E0D06333210
:1051A4002D2C252434312E2B262335302F2A27224B
:1051B400FFFFFF2928215510320D1014102632301C
:1051C40055345F3F5527551555044402441344256F
:1051D400503A3C373223320D320021032114212569
:1051E400102A101810070007001800298B10AE0DA4
:1051F400D014D026AE308B34813F8B278B158B0493
:105204009C029C139C25903AA437AE23AE0DAE00AD
:10521400BF03BF14BF25D02AD018D007E007E01879
:10522400E02902020202020201040404040404014B
:10523400010404040404040404040101010202023C
:105244000202020104040404040401010404040429
:1052540004040404040101010008101818100800D3
:105264000906946697C6F4F5F6F73133E200E900CF
:10527400EA00B500B600B700CD008301CC008A0176
:10528400920194012102230224022502260227020C
:105294002A02B300B4006F0070009F01CB019F028B
:1052A400A002E200E900EA00B500B600B700CD00B4
:1052B4008301CC008A019201940121022302240279
:1052C4002502260227022A02B300B4006F007000F0
:0852D4009F01CB019F02A00223
:00000001FF
